:100000000C945E000C9486000C9486000C94860080
:100010000C9486000C9486000C9486000C94860048
:100020000C9486000C9486000C9486000C94560563
:100030000C9486000C9486000C9486000C94860028
:100040000C940C050C9486000C94DA040C94B40403
:100050000C9486000C9486000C9486000C94860008
:100060000C9486000C9486000000000024002700F9
:100070002A0000000000250028002B0004040404CE
:100080000404040402020202020203030303030342
:10009000010204081020408001020408102001021F
:1000A00004081020000000080002010000030407FB
:1000B000000000000000000017069D0811241FBE6C
:1000C000CFEFD8E0DEBFCDBF11E0A0E0B1E0E6E5C4
:1000D000F7E102C005900D92A033B107D9F722E0F5
:1000E000A0E3B1E001C01D92A831B207E1F710E032
:1000F000CDE5D0E004C02197FE010E948309CC35F4
:10010000D107C9F70E9462060C949E0B0C94000064
:10011000CF92DF92EF92FF920F931F93CF93DF93D3
:100120006C017A018B01C0E0D0E0CE15DF0589F0CB
:10013000D8016D918D01D601ED91FC910190F08176
:10014000E02DC6010995892B11F47E0102C021968C
:10015000ECCFC701DF91CF911F910F91FF90EF90EE
:10016000DF90CF900895089580E090E00895FC011D
:10017000538D448D252F30E0842F90E0821B930B0C
:10018000541710F0CF96089501970895FC01918DB2
:10019000828D981761F0828DDF01A80FB11D5D96E9
:1001A0008C91928D9F5F9F73928F90E008958FEF57
:1001B0009FEF0895FC01918D828D981731F0828D0B
:1001C000E80FF11D858D90E008958FEF9FEF089562
:1001D000FC01918D228D892F90E0805C9F4F821BC6
:1001E00091098F739927089585E691E00E94E800B0
:1001F00021E0892B09F420E0822F0895FC01848DF1
:10020000DF01A80FB11DA35ABF4F2C91848D90E040
:1002100001968F739927848FA689B7892C93A0891B
:10022000B1898C9180648C93938D848D981306C0D2
:100230000288F389E02D80818F7D80830895EF927D
:10024000FF920F931F93CF93DF93EC0181E0888F90
:100250009B8D8C8D981305C0E889F989808185FD77
:1002600024C0F62E0B8D10E00F5F1F4F0F73112768
:10027000E02E8C8DE8120CC00FB607FCFACFE8898F
:10028000F989808185FFF5CFCE010E94FE00F1CF74
:100290008B8DFE01E80FF11DE35AFF4FF0820B8FAB
:1002A000EA89FB898081806207C0EE89FF896083CB
:1002B000E889F98980818064808381E090E0DF9122
:1002C000CF911F910F91FF90EF900895CF93DF93FF
:1002D000EC01888D8823C9F0EA89FB89808185FD3E
:1002E00005C0A889B9898C9186FD0FC00FB607FC9F
:1002F000F5CF808185FFF2CFA889B9898C9185FFE0
:10030000EDCFCE010E94FE00E7CFDF91CF9108959F
:1003100080E090E0892B29F00E94F40081110C9478
:100320000000089590E0FC01EC55FF4F3491FC0172
:10033000E057FF4F2491FC01E458FF4FE491EE2376
:1003400009F43BC0332339F1333091F038F43130C4
:10035000A9F0323001F584B58F7D12C0373091F0AD
:100360003830A1F03430B9F4809180008F7D03C023
:10037000809180008F77809380000DC084B58F7747
:1003800084BD09C08091B0008F7703C08091B00018
:100390008F7D8093B000F0E0EE0FFF1FEE58FF4F0F
:1003A000A591B4918FB7F894EC91611103C0209599
:1003B0002E2301C02E2B2C938FBF08953FB7F894A6
:1003C00080915B0190915C01A0915D01B0915E0113
:1003D00026B5A89B05C02F3F19F00196A11DB11DA0
:1003E0003FBFBA2FA92F982F8827820F911DA11DDB
:1003F000B11DBC01CD0142E0660F771F881F991F18
:100400004A95D1F708958F929F92AF92BF92CF9263
:10041000DF92EF92FF926B017C010E94DE014B01A3
:100420005C01C114D104E104F104F1F00E94DE0189
:10043000DC01CB0188199909AA09BB09883E9340C0
:10044000A105B10570F321E0C21AD108E108F10855
:1004500088EE880E83E0981EA11CB11CC114D10443
:10046000E104F10419F7DDCFFF90EF90DF90CF901A
:10047000BF90AF909F908F900895CF92DF92EF92B0
:10048000FF92CF93DF93EC01603282E078070CF0AB
:100490003DC077FD06C0653B71052CF064EB70E054
:1004A00002C060E070E0898128E830E06901C81A84
:1004B000D10887FDD394CC0CDD1CCC0CDD1C0D2C9D
:1004C000000CEE08FF088A8128E532E0281B31097C
:1004D00087FD3395220F331F220F331FC901330FBE
:1004E000AA0BBB0B9C01AD012C193D094E095F09FC
:1004F000DB010E94070924EB30E040E050E00E945D
:10050000DD08C20ED31EE41EF51EB60188818C30B4
:1005100080F5998148E850E0491B510997FD5395B2
:10052000440F551F440F551F6417750784F09A81B7
:1005300028E532E0291B310997FD3395220F331F3F
:10054000220F331FAB01261737070CF4A9014250C5
:100550005109440F551F2FB7F89490E0FC01EE0F9E
:10056000FF1F8E0F9F1FFC01EE5CFE4F52834183E5
:100570002FBFDF91CF91FF90EF90DF90CF90089544
:10058000CF93DF93DC018C918C3008F06DC09B0120
:100590003327F901E057FF4F8491F901E458FF4FE9
:1005A0002491222399F030E0220F331FF901E859FA
:1005B000FF4FC591D491F901EE58FF4F2591349129
:1005C0009FB7F894E881E82BE8839FBF8C91E82FD0
:1005D000F0E09F01220F331FE20FF31FEE5CFE4F8E
:1005E0006F739081907C692B608311961C92119798
:1005F00012961C9212976CE00E9477099CE0899FEA
:10060000B001112440E050E09A01260F371FF90194
:10061000EE0FFF1F2E0F3F1FF901EE5CFE4F908182
:1006200096FD16C04F5F5F4F4C30510569F7811141
:100630000FC01092800082E08093810010928500AC
:1006400010928400B19A80916F00826080936F0055
:10065000EC91F0E0CF01880F991FE80FF91FEE5CD5
:10066000FE4F8081806480838C91DF91CF910895CB
:10067000FC01909131019C30A0F481E0890F8093BE
:1006800031019083892F90E0FC01EE0FFF1F8E0F48
:100690009F1FFC01EE5CFE4F88EB9BE09283818301
:1006A00008958FEF80830895009769F0FC01019011
:1006B0000020E9F73197AF01481B590BBC0185E6D3
:1006C00091E00C94880080E090E00895CF93DF9350
:1006D0000E945403EC0188E191E00E9454038C0FC6
:1006E0009D1FDF91CF9108958F929F92AF92BF92FD
:1006F000CF92DF92EF92FF920F931F93CF93DF93EE
:10070000CDB7DEB7A1970FB6F894DEBF0FBECDBF51
:100710006C01990FEE08FF08F7FE31C0E09165010A
:10072000F09166010190F081E02D6DE285E691E0A7
:1007300009958C0122273327A9012C193D094E095F
:100740005F0919A2CE0181967C019AE0892E912C35
:10075000A12CB12CCA01B901A50194010E9446093E
:10076000605DF70162937F01211531054105510557
:1007700089F7CF010E945403080F191F1EC0A7015B
:10078000960119A28E010F5D1F4F8AE0C82ED12C51
:10079000E12CF12CCA01B901A70196010E9446097A
:1007A000605DF80162938F01211531054105510506
:1007B00089F7CF010E9454038C0188E191E00E94E7
:1007C0005403800F911FA1960FB6F894DEBF0FBEA1
:1007D000CDBFDF91CF911F910F91FF90EF90DF90F0
:1007E000CF90BF90AF909F908F900895FC01808133
:1007F00091810C941E0A0E94800B0F931F93CF933C
:10080000DF93EC0188819981009729F02A813B814F
:100810002617370788F48B016F5F7F4F0E94B60A57
:10082000009761F0998388831B830A832C813D8123
:10083000232B11F4FC01108281E001C080E0DF91E4
:10084000CF911F910F910895EF92FF920F931F93F5
:10085000CF93DF93EC017B018A01BA010E94FD0373
:100860002881398181110DC02115310519F0C90187
:100870000E941E0A198218821D821C821B821A8203
:1008800006C01D830C83B701C9010E94970BCE01DE
:10089000DF91CF911F910F91FF90EF900895DF921C
:1008A000EF92FF920F931F93CF93DF937C01EB01A5
:1008B0008A014617570720F48D2FEA01062F182FBB
:1008C000F70111821082138212821582148240E095
:1008D00050E06AE171E0C7010E9424048091120295
:1008E00090911302C817D907B0F58017910708F443
:1008F0008C01E0910E02F0910F02E00FF11FD08009
:10090000108260910E0270910F026C0F7D1F6115B5
:10091000710561F0FB0101900020E9F73197AF010B
:10092000461B570BC7010E9424040EC0F7018081AB
:100930009181009711F00E941E0AF7011182108226
:100940001582148213821282E0910E02F0910F023E
:10095000E00FF11FD082C701DF91CF911F910F915E
:10096000FF90EF90DF9008951F920F920FB60F92B5
:1009700011242F933F934F935F936F937F938F93A4
:100980009F93AF93BF93EF93FF9385E691E00E940F
:10099000FE00FF91EF91BF91AF919F918F917F9159
:1009A0006F915F914F913F912F910F900FBE0F90DC
:1009B0001F9018951F920F920FB60F9211242F932C
:1009C0008F939F93EF93FF93E0917501F0917601E0
:1009D0008081E0917B01F0917C0182FD12C09081C9
:1009E00080917E018F5F8F7320917F01821751F07C
:1009F000E0917E01F0E0EB59FE4F958F80937E01F0
:100A000001C08081FF91EF919F918F912F910F9065
:100A10000FBE0F901F9018951F920F920FB60F9256
:100A200011242F933F938F939F93AF93BF93809104
:100A3000570190915801A0915901B0915A013091FC
:100A4000560123E0230F2D3720F40196A11DB11D7F
:100A500005C026E8230F0296A11DB11D2093560163
:100A60008093570190935801A0935901B0935A0174
:100A700080915B0190915C01A0915D01B0915E015C
:100A80000196A11DB11D80935B0190935C01A09321
:100A90005D01B0935E01BF91AF919F918F913F91A6
:100AA0002F910F900FBE0F901F9018951F920F92CD
:100AB0000FB60F9211242F933F934F935F936F9331
:100AC0007F938F939F93AF93BF93EF93FF93809107
:100AD000300187FF05C010928500109284001BC072
:100AE00020913001022E000C330B8091310190E0F7
:100AF0002817390784F480913001082E000C990BD7
:100B0000FC01EE0FFF1F8E0F9F1FFC01EE5CFE4FDE
:100B1000808186FD15C0809130018F5F8093300108
:100B200020913001022E000C330B8091310190E0B6
:100B300028173907C4F4809130018C3064F113C058
:100B400080913001082E000C990BFC01EE0FFF1F65
:100B50008E0F9F1FFC01EE5CFE4F808160E08F7363
:100B60000E949201D8CF80918400909185000496D4
:100B700080349C4918F480E49CE905C0809184008D
:100B800090918500049690938900809388008FEF60
:100B9000809330013BC0209184003091850080918A
:100BA0003001082E000C990BFC01EE0FFF1F8E0F79
:100BB0009F1FFC01EE5CFE4F81819281820F931F8B
:100BC000909389008093880080913001082E000C5A
:100BD000990BFC01EE0FFF1F8E0F9F1FFC01EE5CB7
:100BE000FE4F808186FF12C080913001082E000CDC
:100BF000990BFC01EE0FFF1F8E0F9F1FFC01EE5C97
:100C0000FE4F808161E08F730E949201FF91EF910E
:100C1000BF91AF919F918F917F916F915F914F9114
:100C20003F912F910F900FBE0F901F901895E5E602
:100C3000F1E01382128288EE93E0A0E0B0E08483BA
:100C40009583A683B7838AE091E09183808385ECC6
:100C500090E09587848784EC90E09787868780EC86
:100C600090E0918B808B81EC90E0938B828B82EC77
:100C700090E0958B848B86EC90E0978B868B118E21
:100C8000128E138E148EEEE0F2E011821082138227
:100C900012821582148240E050E06AE171E0CF01D7
:100CA0000E9424048BE092E00E94380388E092E0E6
:100CB0000E94380385E092E00E94380382E092E0CF
:100CC0000C943803CF93DF9300D000D000D0CDB781
:100CD000DEB7789484B5826084BD84B5816084BDBC
:100CE00085B5826085BD85B5816085BD80916E00CA
:100CF000816080936E0010928100809181008260FB
:100D00008093810080918100816080938100809137
:100D100080008160809380008091B1008460809326
:100D2000B1008091B00081608093B00080917A0022
:100D3000846080937A0080917A00826080937A0048
:100D400080917A00816080937A0080917A00806837
:100D500080937A001092C100E0917501F0917601C4
:100D600082E08083E0917101F09172011082E09144
:100D70007301F09174018FEC808310927D01E091FA
:100D80007901F0917A0186E08083E0917701F0911A
:100D90007801808180618083E0917701F091780112
:100DA000808188608083E0917701F0917801808173
:100DB00080688083E0917701F091780180818F7D58
:100DC000808366E070E08BE092E00E94C00265E004
:100DD00070E088E092E00E94C00269E070E085E087
:100DE00092E00E94C0026AE070E082E092E00E941D
:100DF000C00284EBC82ED12C85E691E00E94E80069
:100E0000892B69F185E691E00E94C60089831A82E8
:100E100000911202109113020F5F1F4FB8018EE074
:100E200092E00E94FD03882399F020910E023091F8
:100E30000F028091120290911302BE016F5F7F4FEB
:100E4000820F931F0E94970B1093130200931202BC
:100E500062E070E080E090E00E940302CDCF40911C
:100E60001202509113024115510509F463C16091BA
:100E70000E0270910F0285E691E00E94880088E1E1
:100E800091E00E94540341E050E060E070E0CE0148
:100E900001960E944F048D819E81892B49F06BE160
:100EA00071E089819A810E948E0B11E0892B09F0F3
:100EB00010E0CE0101960E94F603112309F45EC0F2
:100EC000409112025091130261E070E0CE01019650
:100ED0000E944F0489819A81009729F00E94A108FD
:100EE0004B015C0103C0812C912C540174018DE1F4
:100EF00091E00E946603C4010E94740300916301A3
:100F0000109164015601A01AB10A08151905ECF4F4
:100F1000B8018BE092E00E943D02B50188E092E0CA
:100F20000E943D0268E270E080E090E00E940302CF
:100F30000F5F1F4F81E0A81AB108E016F10644F7D1
:100F4000F0926401E0926301D7C0B8018BE092E0B7
:100F50000E943D02B50188E092E00E943D0268E2F5
:100F600070E080E090E00E940302015011098FEFD1
:100F7000A81AB80A0E151F0544F7E2CF41E050E069
:100F800060E070E0CE0101960E944F048D819E8149
:100F9000892B51F062E271E089819A810E948E0B67
:100FA00011E0892B09F010E0CE0101960E94F603B2
:100FB000112309F44BC0409112025091130261E0D9
:100FC00070E0CE0101960E944F0489819A810097BA
:100FD00029F00E94A1084B015C0103C0812C912CD7
:100FE0005401740184E291E00E946603C4010E94EE
:100FF0007403009161011091620108151905ACF4A8
:10100000B80185E092E00E943D0268E270E080E075
:1010100090E00E9403020F5F1F4FE016F10684F775
:10102000F0926201E092610167C0B80185E092E050
:101030000E943D0268E270E080E090E00E940302BE
:10104000015011090E151F0584F7EACF41E050E069
:1010500060E070E0CE0101960E944F048D819E8178
:10106000892B51F069E271E089819A810E948E0B8F
:1010700011E0892B09F010E0CE0101960E94F603E1
:10108000112309F44FC0409112025091130261E004
:1010900070E0CE0101960E944F0489819A810097E9
:1010A00029F00E94A1084B015C0103C0812C912C06
:1010B000540174018BE291E00E946603C4010E9416
:1010C000740300915F011091600108151905CCF4BB
:1010D000B80182E092E00E943D0268E270E080E0A8
:1010E00090E00E9403020F5F1F4FE016F10684F7A5
:1010F000F0926001E0925F01CE0101960E94F6033A
:1011000011C0B80182E092E00E943D0268E270E006
:1011100080E090E00E940302015011090E151F05A6
:1011200084F7E6CF40E050E06AE171E08EE092E0C3
:101130000E9424040E9488015FCE8EE092E00C940D
:10114000F6031F93FC0199278827BC01E8941191AD
:101150001032E9F3193010F01E30C8F31B3251F091
:101160001D3249F4689406C00E94C808610F711DC1
:10117000811D911D119110531A30B0F33EF49095DA
:101180008095709561957F4F8F4F9F4F1F91089568
:10119000592F482F372F262F660F771F881F991F2B
:1011A000660F771F881F991F620F731F841F951F7B
:1011B000660F771F881F991F0895052E97FB1EF451
:1011C00000940E94F40857FD07D00E94460907FCCE
:1011D00003D04EF40C94F408509540953095219529
:1011E0003F4F4F4F5F4F0895909580957095619553
:1011F0007F4F8F4F9F4F08950E946809A59F900DC4
:10120000B49F900DA49F800D911D11240895B7FFE8
:101210000C94FC080E94FC08821B930B08952F92EB
:101220003F924F925F926F927F928F929F92AF9276
:10123000BF92CF92DF92EF92FF920F931F93CF93C3
:10124000DF93CDB7DEB7CA1BDB0B0FB6F894DEBF5A
:101250000FBECDBF09942A88398848885F846E8480
:101260007D848C849B84AA84B984C884DF80EE80CA
:10127000FD800C811B81AA81B981CE0FD11D0FB6D3
:10128000F894DEBF0FBECDBFED010895A1E21A2E86
:10129000AA1BBB1BFD010DC0AA1FBB1FEE1FFF1F1A
:1012A000A217B307E407F50720F0A21BB30BE40B6A
:1012B000F50B661F771F881F991F1A9469F76095B1
:1012C0007095809590959B01AC01BD01CF0108956B
:1012D000A29FB001B39FC001A39F700D811D112477
:1012E000911DB29F700D811D1124911D0895991BB0
:1012F00079E004C0991F961708F0961B881F7A950D
:10130000C9F780950895EE0FFF1F0590F491E02D29
:101310000994CF93DF938230910510F482E090E03E
:10132000E0911602F091170220E030E0C0E0D0E03A
:10133000309711F14081518148175907C0F0481783
:10134000590761F482819381209719F09B838A83E6
:101350002BC0909317028093160226C021153105E9
:1013600019F04217530718F49A01BE01DF01EF018B
:101370000280F381E02DDCCF2115310509F1281B16
:10138000390B2430310590F412968D919C9113976E
:101390006115710521F0FB019383828304C0909352
:1013A000170280931602FD01329644C0FD01E20F40
:1013B000F31F81939193225031092D933C933AC0AE
:1013C0002091140230911502232B41F42091020147
:1013D00030910301309315022093140220910001F3
:1013E000309101012115310541F42DB73EB74091EF
:1013F000040150910501241B350BE0911402F0917A
:101400001502E217F307A0F42E1B3F0B281739072C
:1014100078F0AC014E5F5F4F2417350748F04E0F50
:101420005F1F50931502409314028193919302C061
:10143000E0E0F0E0CF01DF91CF9108950F931F938B
:10144000CF93DF93009709F48CC0FC01329713828D
:10145000128200911602109117020115110581F4F4
:1014600020813181820F931F209114023091150247
:101470002817390779F5F0931502E093140271C02B
:10148000D80140E050E0AE17BF0750F412962D91FE
:101490003C911397AD012115310509F1D901F3CF25
:1014A0009D01DA013383228360817181860F971F4A
:1014B0008217930769F4EC0128813981260F371FC1
:1014C0002E5F3F4F318320838A819B819383828368
:1014D000452B29F4F0931702E093160242C01396AD
:1014E000FC93EE931297ED01499159919E01240FBF
:1014F000351FE217F30771F480819181840F951FE6
:10150000029611969C938E938281938113969C935D
:101510008E931297E0E0F0E0D80112968D919C91A5
:101520001397009719F0F8018C01F6CF8D919C91DB
:1015300098012E5F3F4F820F931F2091140230912C
:1015400015022817390769F4309729F41092170209
:101550001092160202C01382128210931502009399
:101560001402DF91CF911F910F910895A0E0B0E098
:10157000ECEBFAE00C941309EC01009721F4CB0199
:101580000E948909B8C0FC01E60FF71F9C01225098
:101590003109E217F30708F4ACC0D9010D911C9191
:1015A000119706171707B0F00530110508F49FC012
:1015B000C80104978617970708F499C002501109CB
:1015C000061B170B019311936D937C93CF010E941F
:1015D0001E0A8DC05B01A01AB10A4C01800E911E3B
:1015E000A0911602B091170240E050E0E12CF12CDE
:1015F000109709F44AC0A815B905D1F56D907C90F3
:101600001197630182E0C80ED11CCA14DB0480F17B
:10161000A3014A195B096A0182E0C80ED11C129627
:10162000BC9012971396AC91B5E0CB16D10440F064
:10163000B282A38351834083D9016D937C930AC006
:101640000E5F1F4FC301800F911FF90191838083AB
:10165000EB2DFA2FE114F10431F0D7011396FC932E
:10166000EE93129744C0F0931702E09316023FC026
:101670008D919C9111974817590708F4AC017D0191
:1016800012960D90BC91A02DB3CF80911402909131
:10169000150288159905E1F446175707C8F480919B
:1016A000000190910101009741F48DB79EB74091E0
:1016B000040150910501841B950BE817F907C8F444
:1016C000F0931502E0931402F901718360830FC057
:1016D000CB010E9489097C01009759F0A801BE0145
:1016E0000E94850BCE010E941E0AC70104C0CE01D4
:1016F00002C080E090E0CDB7DEB7EEE00C942F0999
:1017000081E090E0F8940C949E0BFB01DC0102C098
:1017100001900D9241505040D8F70895FB01DC0133
:101720008D91019080190110D9F3990B0895FB0157
:10173000DC0101900D920020E1F7089510E0CDE565
:10174000D0E004C0FE010E9483092196CE35D10766
:06175000C9F7F894FFCF79
:10175600000018028000000000001F018800B7008A
:101766006601E800C600DA000D0A006200626173D5
:1017760065006F0061726D3100740061726D320038
:107E0000112484B714BE81FFF0D085E080938100F7
:107E100082E08093C00088E18093C10086E0809377
:107E2000C20080E18093C4008EE0C9D0259A86E02C
:107E300020E33CEF91E0309385002093840096BBD3
:107E4000B09BFECF1D9AA8958150A9F7CC24DD24C4
:107E500088248394B5E0AB2EA1E19A2EF3E0BF2EE7
:107E6000A2D0813461F49FD0082FAFD0023811F036
:107E7000013811F484E001C083E08DD089C08234E0
:107E800011F484E103C0853419F485E0A6D080C0E4
:107E9000853579F488D0E82EFF2485D0082F10E0AE
:107EA000102F00270E291F29000F111F8ED06801E7
:107EB0006FC0863521F484E090D080E0DECF843638
:107EC00009F040C070D06FD0082F6DD080E0C81688
:107ED00080E7D80618F4F601B7BEE895C0E0D1E017
:107EE00062D089930C17E1F7F0E0CF16F0E7DF06D8
:107EF00018F0F601B7BEE89568D007B600FCFDCFD4
:107F0000A601A0E0B1E02C9130E011968C91119780
:107F100090E0982F8827822B932B1296FA010C0160
:107F200087BEE89511244E5F5F4FF1E0A038BF0790
:107F300051F7F601A7BEE89507B600FCFDCF97BE46
:107F4000E89526C08437B1F42ED02DD0F82E2BD052
:107F50003CD0F601EF2C8F010F5F1F4F84911BD097
:107F6000EA94F801C1F70894C11CD11CFA94CF0C13
:107F7000D11C0EC0853739F428D08EE10CD085E9AC
:107F80000AD08FE07ACF813511F488E018D01DD067
:107F900080E101D065CF982F8091C00085FFFCCF94
:107FA0009093C60008958091C00087FFFCCF809118
:107FB000C00084FD01C0A8958091C6000895E0E648
:107FC000F0E098E1908380830895EDDF803219F02E
:107FD00088E0F5DFFFCF84E1DECF1F93182FE3DFCA
:107FE0001150E9F7F2DF1F91089580E0E8DFEE27F6
:047FF000FF270994CA
:027FFE00040479
:0400000300007E007B
:00000001FF